:020000043418AE
:1004000000002034D11F1834D51C1834DD1C1834DA
:10041000E51C1834ED1C1834F51C1834FD1C183478
:100420000000000000000000000000002D20183433
:10043000051D18340000000041081834ED07183479
:100440002D201834000000002D2018342D201834E1
:100450002D2018342D2018342D2018342D20183438
:100460002D201834000000002D2018342D201834C1
:100470002D2018342D2018342D20183400000000B1
:100480002D201834000000002D2018342D201834A1
:100490002D2018342D2018342D2018342D201834F8
:1004A0002D2018342D2018342D2018342D201834E8
:1004B0002D2018342D2018342D2018342D201834D8
:1004C0002D2018342D2018342D2018342D201834C8
:1004D0002D2018342D2018342D2018342D201834B8
:1004E0002D201834000000002D2018342D20183441
:1004F0002D2018342D2018342D2018342D20183498
:100500002D20183400000000000000000000000052
:100510002D2018342D2018342D2018342D20183477
:100520002D2018342D2018342D2018342D20183467
:100530002D2018342D2018342D2018342D20183457
:100540002D2018342D2018342D2018342D20183447
:100550002D2018342D2018342D2018342D20183437
:100560002D2018342D2018342D2018342D20183427
:100570002D2018342D2018342D2018342D20183417
:100580002D2018342D2018342D2018342D20183407
:100590002D2018342D2018342D2018342D201834F7
:1005A0002D2018342D2018342D2018342D201834E7
:1005B0002D2018342D2018342D2018342D201834D7
:1005C0002D2018342D2018342D2018342D201834C7
:1005D0002D2018342D2018342D2018342D201834B7
:1005E0002D2018342D2018342D2018342D201834A7
:1005F0002D2018342D2018342D2018342D20183497
:100600002D2018342D2018342D2018342D20183486
:100610002D2018342D2018342D2018342D20183476
:10062000151D18342D2018342D2018342D20183481
:100630002D2018342D2018342D2018342D20183456
:100640002D2018342D2018342D2018342D20183446
:100650002D2018342D2018342D2018342D20183436
:100660002D2018342D2018342D2018342D20183426
:100670002D2018342D2018342D2018342D20183416
:100680002D2018342D2018342D2018342D20183406
:100690002D2018342D2018342D2018342D201834F6
:1006A0002D2018342D2018342D2018342D201834E6
:1006B0002D2018342D2018342D2018342D201834D6
:1006C0002D2018342D2018342D2018342D201834C6
:1006D0002D2018342D2018342D2018342D201834B6
:1006E0002D2018342D2018342D2018342D201834A6
:1006F0002D2018342D2018342D2018342D20183496
:100700002D2018342D2018342D201834291D18348C
:100710002D2018342D2018342D2018342D20183475
:100720002D2018342D2018342D2018342D20183465
:100730002D2018342D2018342D2018342D20183455
:0C074000000000002D2018342D2018347B
:10074C0010B5054C237833B9044B13B10448AFF3FF
:10075C0000800123237010BDF0001C340000000049
:10076C005C241A3408B5034B1BB103490348AFF39F
:10077C00008008BD00000000F4001C345C241A3416
:10078C0072B64FF0E0201B49C0F8081D1A480168EA
:10079C0041F00101016019481649096801601848C7
:1007AC0000684FF06401B0FBF1F0A0F101014FF0D3
:1007BC00E02041614FF0070101614FF00001C0F8EA
:1007CC00181D4FF07F41C0F81C1D0E49C0F8201DAC
:1007DC0062B67047FFF7FEBF01B5BDE80140704738
:1007EC0001B500F097F8BDE801407047FFF7FEBF78
:1007FC00FFF7FEBF00041834001000E0D0311C34A9
:10080C0000001C340000FF404FF000002D4A106027
:10081C00EFF3148020F0040080F3148862B64FF0DC
:10082C0080504FF0E021C1F8040DBFF34F8FBFF3A0
:10083C006F8FFEE72448254A4FF00003016891B101
:10084C000360EFF3098C2CE9F00F1EF0100F01D1AF
:10085C002CED108A1E4C4CF804EDC1F808C025682C
:10086C000DB18D61236072B61168D1B1016062B6B1
:10087C004F68174C8D6907F101074F602560D1F85F
:10088C000CC08CF30B88D1F808C05CF804EB1EF09C
:10089C00100F01D1BCEC108ABCE8F00F8CF3098866
:1008AC00704772B61168016009B962B6F9E74FF08A
:1008BC0000674FF0E028C8F8047D62B6D8E700BFA7
:1008CC00704700006C321C34D4311C34D8311C34C9
:1008DC00D8371C34026922F00702A2F144026FF0EF
:1008EC00020313604FF0000353609360D3601361F5
:1008FC0053619361D361136253629362D362136346
:10090C0053634FF0FF339363D1634FF080731364E1
:10091C00826070472249086800F101000860214B91
:10092C001A683AB1A2F101021A601AB91E4B4FF0C3
:10093C00010018601D490868026822B11C4B4FF079
:10094C0001021A6008E000F104001A4B1A68904288
:10095C0001D1194B18680860134B1A6812B9144965
:10096C000868C8B101B51249086808B11FF0C8F988
:10097C000D4B1A6872B11FF05DF81048016849B947
:10098C000F4801680F4A13680F484FF08052994284
:10099C0000D00260BDE80140BFF34F8F70470000EC
:1009AC0078321C34D8371C347C321C3408331C3459
:1009BC000C331C3404331C3400331C346C321C34A4
:1009CC00D4311C34D8311C3404ED00E053B94AB98D
:1009DC00002908BF00281CBF4FF0FF314FF0FF303B
:1009EC0000F0B2B9ADF1080C6DE904CE00F006F8D8
:1009FC00DDF804E0DDE9022304B070472DE9F04F87
:100A0C008C46099E04460F46002B48D18A42154657
:100A1C005ED9B2FA82F33BB1C3F120029F409D40F4
:100A2C009C4020FA02F217434FEA154E1FFA85FC40
:100A3C00220CB7FBFEF10EFB117701FB0CF042EA26
:100A4C000742904207D9AA1801F1FF3702D290420F
:100A5C0000F258813946121AA4B2B2FBFEF00EFB1A
:100A6C00102200FB0CFC44EA0244A4450BD92C19BF
:100A7C0000F1FF322CBF01270027A44502D9002F1B
:100A8C0000F04381104640EA0140A4EB0C04002125
:100A9C001EB1DC400023C6E90043BDE8F08F8B4259
:100AAC0006D90EB1C6E9000100210846BDE8F08F59
:100ABC00B3FA83F1002951D16345C0F0168182420B
:100ACC0040F213810846002EE7D0C6E90047E4E760
:100ADC00002A00F0AF80B2FA82F3002B40F0C28003
:100AEC008A1A4FEA154EAFB20121200CB2FBFEFC64
:100AFC000EFB1C2240EA024207FB0CF090420ED97E
:100B0C00AA180CF1FF382CBF4FF001094FF0000967
:100B1C00904203D9B9F1000F00F0F080C446121ACC
:100B2C00A4B2B2FBFEF00EFB102200FB07F744EA66
:100B3C000244A7420ED92C1900F1FF322CBF4FF002
:100B4C00010E4FF0000EA74203D9BEF1000F00F0CA
:100B5C00D2801046E41B40EA0C4099E7C1F1200515
:100B6C008B400CFA01F400FA01F922FA05F72CFA81
:100B7C0005FC8A401F4320FA05F3380C23431FFA67
:100B8C0087FE1C0CBCFBF0F800FB18CC44EA0C44B0
:100B9C0008FB0EFCA4450ED93C1908F1FF3A2CBFFA
:100BAC004FF0010B4FF0000BA44503D9BBF1000F24
:100BBC0000F0B880D046A4EB0C041FFA83FCB4FB05
:100BCC00F0F300FB134403FB0EFE4CEA0444A64571
:100BDC000ED93C1903F1FF302CBF4FF0010C4FF034
:100BEC00000CA64503D9BCF1000F00F09F80034612
:100BFC0043EA0840A4EB0E04A0FB02EC64457346E8
:100C0C00E04602D307D1F14505D2BEEB02036CEBF3
:100C1C00070C0138E0465EB1B9EB030264EB080443
:100C2C0004FA05F522FA01F3CC401D43C6E9005441
:100C3C00002132E742082F464B08AC4642EAC1720B
:100C4C00AE46C407110C92B241EA034142EA01429A
:100C5C00B1FBF5F1B3FBF5F01F23A2EB0C0241EA5B
:100C6C00004142E79D40C3F1200299409C402CFA80
:100C7C0002FC4FEA154E20FA02F2AFB2BCFBFEF8B2
:100C8C000A430EFB18CC110C41EA0C4108FB07FC83
:100C9C008C4550D9691808F1FF302CBF4FF0010971
:100CAC004FF000098C4502D9B9F1000F30D0A1EBFF
:100CBC000C01B1FBFEF808FB07FC0EFB181192B2FD
:100CCC0042EA0142624534D2AA1808F1FF312CBF26
:100CDC004FF001094FF000096245BED2B9F1000F87
:100CEC00BBD1A8F102012A44B7E7841A6CEB0302CA
:100CFC0001201746E7E62C4402382BE7ACF1020C36
:100D0C002A440CE702392A44A5E62C440238BAE6F8
:100D1C00A5EB0C0CA8F102006144B1FBFEF808FB3A
:100D2C0007FCCAE7A8F102083C4444E7023B3C44F8
:100D3C005EE7414691E7A1EB0C014046B1FBFEF8A2
:100D4C0008FB07FCB9E700BF704700BF80B586B051
:100D5C0002AF78600023FB60342300934FF4806370
:100D6C00194A1A491A481FF075FA0346002B02D08B
:100D7C0000F0F6FC0AE0164BBB60B86800F030F8E7
:100D8C00F860FB68002B01D000F0EAFC34230093E0
:100D9C004FF4F0430F4A104910481FF05BFA03461A
:100DAC00002B02D000F0DCFC0AE00C4BBB60B868F6
:100DBC0000F0F4FFF860FB68002B01D000F0D0FCD1
:100DCC0000BF1037BD4680BD0C011C3474241A348E
:100DDC000C051C340000003488241A3440051C34E3
:100DEC0080B485B000AF78600023FB60FB681846C8
:100DFC001437BD465DF8047B704780B500AF1CF01E
:100E0C0011FF00BF80BD000080B485B000AF7860DA
:100E1C00074A7B68C2F8583A054BD3F85832FB6046
:100E2C00FB6800BF1437BD465DF8047B704700BFFC
:100E3C000080025680B485B000AF7860074A7B68AA
:100E4C00C2F85C3A054BD3F85C32FB60FB6800BF20
:100E5C001437BD465DF8047B704700BF0080025616
:100E6C0080B584B000AF00F015FC434B5B6903F414
:100E7C000033002B1BD1BFF34F8F00BFBFF36F8F1D
:100E8C0000BF3D4B0022C3F85022BFF34F8F00BF71
:100E9C00BFF36F8F00BF384B5B69374A43F40033A5
:100EAC005361BFF34F8F00BFBFF36F8F00E000BFE4
:100EBC00314B5B6903F48033002B38D12E4B00226D
:100ECC00C3F88420BFF34F8F00BF2B4BD3F8803077
:100EDC00FB60FB685B0BC3F30E03BB60FB68DB08BA
:100EEC00C3F309037B60BB685A0143F6E0731340FC
:100EFC007A68920720491343C1F860327B685A1E06
:100F0C007A60002BEFD1BB685A1EBA60002BE5D17A
:100F1C00BFF34F8F00BF184B5B69174A43F4803304
:100F2C005361BFF34F8F00BFBFF36F8F00E000BF63
:100F3C0001F048FC00F026F800F05CFB00F00EFB22
:100F4C0000F0CEF900F0B8F900F036FA00F074FABF
:100F5C004FF4FA6001F06AFC084B1B689868002398
:100F6C000222002120F0C0F9054820F031FCFFF7E7
:100F7C0044FF00BFFDE700BF00ED00E09C001C3407
:100F8C009C241A3480B5ADF51A7D00AF07F51A73A1
:100F9C00A3F5C87318464FF4C8731A46002120F005
:100FAC0038FC07F51A73A3F50A73184698231A46EA
:100FBC00002120F02EFC07F51A73A3F51A731846BE
:100FCC0040231A46002120F024FC002004F016FCDB
:100FDC000346002B01D000F0C3FB002004F036FCCC
:100FEC000346002B01D000F0BBFB07F51A73A3F5E9
:100FFC000A7302221A6007F51A73A3F50A73082202
:10100C00DA6007F51A73A3F50A7300221A6107F563
:10101C001A73A3F50A7300225A6107F51A73A3F524
:10102C000A7300229A6207F51A73A3F50A73002259
:10103C005A6407F51A73A3F50A7300221A6607F5AA
:10104C001A73A3F50A730022DA6707F140031846F6
:10105C0004F0AEFE0346002B01D000F081FB07F537
:10106C001A73A3F5C8714FF000024FF08003C1E969
:10107C00002307F51A73A3F5C8730022C3F88C215B
:10108C0007F1D803184607F011FC0346002B01D0DA
:10109C0000F066FB3B46184605F00CFD07F51A738D
:1010AC00A3F51A735B68B3F5403F07D007F51A73C5
:1010BC00A3F51A739B68B3F1407F1AD107F51A7325
:1010CC00A3F51A7303221A6007F51A73A3F51A73A2
:1010DC0000225A6007F51A73A3F51A7300229A605E
:1010EC003B46184605F044FA0346002B01D000F0AD
:1010FC0037FB07F51A73A3F50A7300221A6007F57C
:10110C001A73A3F50A7302229A6207F51A73A3F5F0
:10111C000A730022DA6207F51A73A3F50A73022226
:10112C001A6307F51A73A3F50A734B229A6307F532
:10113C001A73A3F50A7300225A6307F51A73A3F501
:10114C000A730122DA6307F51A73A3F50A730122F5
:10115C001A6407F51A73A3F50A7302225A6407F589
:10116C001A73A3F50A7300229A6407F51A73A3F590
:10117C000A730422DA6407F51A73A3F50A734B2277
:10118C005A6507F51A73A3F50A7300221A6507F559
:10119C001A73A3F50A7302229A6507F51A73A3F55D
:1011AC000A730122DA6507F51A73A3F50A73002294
:1011BC001A6607F51A73A3F50A730022DA6707F1AA
:1011CC004003184604F0F4FD0346002B01D000F058
:1011DC00C7FA07F51A73A3F51A737F221A6007F57D
:1011EC001A73A3F51A734FF440325A6007F51A7349
:1011FC00A3F51A734FF040729A6007F51A73A3F5B2
:10120C001A734FF48012DA6007F51A73A3F51A7388
:10121C0000221A6107F51A73A3F51A7300225A619A
:10122C0007F51A73A3F51A7300229A6107F51A735E
:10123C00A3F51A730022DA6107F51A73A3F51A7372
:10124C004FF080521A6207F51A73A3F51A73012234
:10125C005A6207F51A73A3F51A7300229A6207F5FE
:10126C001A73A3F51A730622DA6207F51A73A3F53B
:10127C001A7300221A6307F51A73A3F51A73032263
:10128C005A6307F51A73A3F51A7300229A6307F5CC
:10129C001A73A3F51A730322DA633B46184605F05A
:1012AC0067F90346002B01D000F05AFA00BF07F58E
:1012BC001A77BD4680BD000080B500AF064B074ACB
:1012CC001A60054800F052FA0346002B01D000F0DA
:1012DC0047FA00BF80BD00BFB0051C3400FC0D58A0
:1012EC0080B582B000AF3C2200212D4820F091FA4D
:1012FC002B4B21225A602A4B4FF440329A61284BD7
:10130C0000225A61274B284A1A60284B00221A7077
:10131C00264B80225A70254BE0229A70234B0022D8
:10132C00DA70224B10221A71204B00225A711D4B7D
:10133C001E4A5A601B4B01221A7200237B601CE070
:10134C007A6813465B0013445B01194A1A44154929
:10135C007B6802339B000B445A607A6813465B002F
:10136C0013445B01134A1A440E497B6804339B00F7
:10137C000B445A607B6801337B607B68012BDFD99F
:10138C00084B4FF4C062DA61064801F021FC0346B9
:10139C00002B01D000F0E4F900BF0837BD4680BD3A
:1013AC0074051C34BC051C3400600358D8071C346D
:1013BC00C0801F3400801F3480B500AF1B4B1C4A0B
:1013CC001A601A4B1B4A5A60184B00229A60174B32
:1013DC000122DA60154B00221A61144B00225A616B
:1013EC00124B00229A61114B0022DA610F4B002242
:1013FC001A620E481FF09CFD0346002B01D000F032
:10140C00AFF9002109481FF02EFE0346002B01D036
:10141C0000F0A6F9002105481FF070FE0346002BD2
:10142C0001D000F09DF900BF80BD00BFF0061C3458
:10143C0000540050FFEDC03080B582B000AF4FF4C7
:10144C000070FFF7E1FC3B4600221A605A60022351
:10145C003B6003237B603B46194606200DF0DEFE05
:10146C00032138480DF016FF40F2013202213648B4
:10147C0004F07CF940F201322021344804F076F972
:10148C0040F201324021314804F070F940F201324F
:10149C0010212F4804F06AF940F2013220212C4827
:1014AC0004F064F940F201328021294804F05EF91D
:1014BC0040F201324FF48061254804F057F940F2B4
:1014CC0001324FF40061224804F050F940F201322D
:1014DC004FF480511E4804F049F940F201324FF4A8
:1014EC0000511B4804F042F940F201324FF48041A4
:1014FC00174804F03BF940F201324FF40041144814
:10150C0004F034F940F201320121124804F02EF9B2
:10151C0040F201324FF480610E4804F027F940F29A
:10152C0001324FF400610B4804F020F940F2013213
:10153C004FF40071084804F019F900BF0837BD4694
:10154C0080BD00BF1C00001000080256001002569F
:10155C000014025600180256001C025680B500AF4B
:10156C00224B234A1A60214B4FF4E1325A601F4B35
:10157C0000229A601D4B0022DA601C4B00221A617B
:10158C001A4B0C225A61194B00229A61174B0022FC
:10159C00DA61164B00221A62144B00225A62134B6A
:1015AC0000229A6211480EF0B3FA0346002B01D0C8
:1015BC0000F0D6F800210D480EF0D8FF0346002BA2
:1015CC0001D000F0CDF8002108480FF00DF80346CB
:1015DC00002B01D000F0C4F804480EF08EFF034637
:1015EC00002B01D000F0BCF800BF80BD44071C34B8
:1015FC000010005280B586B000AF3B1D00221A606F
:10160C005A609A60DA601A610420FFF713FC10200C
:10161C00FFF710FC8020FFF70DFC2020FFF70AFCE1
:10162C004020FFF707FC012240F201410A4804F078
:10163C0085F840F201437B600123BB600023FB6013
:10164C0003233B613B1D1946034803F0C5FE00BF55
:10165C001837BD4680BD00BF0018025680B584B057
:10166C0000AFF860B9607A607B689AB24FF0FF33D4
:10167C00B96807480EF09CFA0346002B01D17B6831
:10168C0001E04FF0FF3318461037BD4680BD00BF58
:10169C0044071C3480B588B000AF3B1D00221A6093
:1016AC005A609A60DA6000233B80EFF310837B6111
:1016BC007B69FB6172B600BF01F0E2F901233B715B
:1016CC0000237B71194BBB60194BFB600023BB7172
:1016DC0001233B7400237B740023BB740023FB7435
:1016EC003B1D184601F0ECF901237B71114BBB60DB
:1016FC00114BFB6000233B743B1D184601F0E0F9D5
:10170C0000233B7044237B703B46184601F0E6F9FE
:10171C00062001F093F9FB69BB61BB6983F3108868
:10172C0000BF00BF2037BD4680BD00BF00801F3406
:10173C007F811F3480811F34FFFF1F3480B582B03E
:10174C0000AF78607B681B68044A934201D101F0BA
:10175C004DF800BF0837BD4680BD00BF00100050DB
:10176C0080B400AF72B600BF00BFFDE780B584B097
:10177C0000AF78607B68002B01D1012313E07B68FC
:10178C001B79DBB2002B02D1786800F0B3F87B68D0
:10179C0000229A607B6801221A71786800F007F8C1
:1017AC000346FB73FB7B18461037BD4680BD80B5E6
:1017BC0084B000AF78600023FB737B68002B01D1F1
:1017CC00012334E07B681B685B6803F00103002B8A
:1017DC001ED001F01FF8B86013E001F01BF80246B0
:1017EC00BB68D31A012B0CD97B681B685B6803F0B0
:1017FC000103002B05D17B6810229A600123FB7337
:10180C0006E07B681B685B6803F00103002BE4D1E6
:10181C00FB7B002B0AD17B6800229A607B681B68DB
:10182C001A687B681B6842F001021A60FB7B184641
:10183C001037BD4680BD000080B485B000AF786025
:10184C00074A7B68C2F85C3A054BD3F85C32FB6004
:10185C00FB6800BF1437BD465DF8047B704700BFC2
:10186C000080025680B485B000AF7860074A7B6870
:10187C00C2F8603A054BD3F86032FB60FB6800BFDE
:10188C001437BD465DF8047B704700BF00800256DC
:10189C0080B485B000AF7860074A7B68C2F8643AC0
:1018AC00054BD3F86432FB60FB6800BF1437BD46B0
:1018BC005DF8047B704700BF0080025680B485B091
:1018CC0000AF7860074A7B68C2F86C3A054BD3F8D6
:1018DC006C32FB60FB6800BF1437BD465DF8047BBF
:1018EC00704700BF0080025680B500AF03F0D6FFF2
:1018FC0000BF80BD80B582B000AF78607B681B688C
:10190C00054A934203D14FF08040FFF7ABFF00BF75
:10191C000837BD4680BD00BF00FC0D5880B5ECB04B
:10192C0000AF07F5D873A3F5D673186007F5CE731F
:10193C0000221A605A609A60DA601A6107F5D8734F
:10194C00A3F5D47318464FF4C8731A4600211FF040
:10195C0060FF07F5D873A3F5D6731B681B68364A6E
:10196C00934264D107F5D873A3F5D4714FF02002DC
:10197C004FF00003C1E9002307F5D873A3F5D47326
:10198C000022C3F8CC2007F10803184606F08EFF9E
:10199C000346002B01D0FFF7E3FE4FF00070FFF77A
:1019AC0061FF4FF48000FFF75DFF4FF40000FFF77D
:1019BC0059FF4FF08070FFF755FF2020FFF73CFFD9
:1019CC004020FFF739FF4FF6B043C7F89C31022394
:1019DC00C7F8A0310023C7F8A4310023C7F8A831F9
:1019EC000B23C7F8AC3107F5CE731946134803F037
:1019FC00F3FC4FF40063C7F89C310223C7F8A03105
:101A0C000023C7F8A4310023C7F8A8310B23C7F86B
:101A1C00AC3107F5CE731946094803F0DDFC002202
:101A2C000721B32000F0DEFFB32000F0F8FF00BF69
:101A3C0007F5D877BD4680BD0060035800140256E8
:101A4C000018025680B5ECB000AF07F5D873A3F5BB
:101A5C00D673186007F5CE7300221A605A609A602C
:101A6C00DA601A6107F5D873A3F5D47318464FF4EE
:101A7C00C8731A4600211FF0CCFE07F5D873A3F5E6
:101A8C00D6731B681B682C4A93424FD107F5D87349
:101A9C00A3F5D4714FF480524FF00003C1E9002339
:101AAC0007F5D873A3F5D473244AC3F8E82007F1DB
:101ABC000803184606F0FAFE0346002B01D0FFF788
:101ACC004FFE0420FFF7B8FE8020FFF7B5FE02237F
:101ADC00C7F89C311223C7F8A0310023C7F8A431F2
:101AEC000023C7F8A8310423C7F8AC3107F5CE732F
:101AFC001946134803F070FC4FF40073C7F89C317F
:101B0C001223C7F8A0310023C7F8A4310023C7F86B
:101B1C00A8310423C7F8AC3107F5CE731946094830
:101B2C0003F05AFC4FF40010FFF7B2FE00BF07F5AC
:101B3C00D877BD4680BD00BF005400500C00000794
:101B4C0000080256001C025680B5ECB000AF07F539
:101B5C00D873A3F5D673186007F5CE7300221A60FC
:101B6C005A609A60DA601A6107F5D873A3F5D473DA
:101B7C0018464FF4C8731A4600211FF04AFE07F5A9
:101B8C00D873A3F5D6731B681B681F4A934235D1D3
:101B9C0007F5D873A3F5D4714FF000024FF480739E
:101BAC00C1E9002307F5D873A3F5D473174AC3F81A
:101BBC00502107F10803184606F078FE0346002B67
:101BCC0001D0FFF7CDFD1020FFF778FE1020FFF7B6
:101BDC0033FE6023C7F89C310223C7F8A0310023E1
:101BEC00C7F8A4310023C7F8A8310723C7F8AC31D4
:101BFC0007F5CE731946064803F0EEFB00BF07F558
:101C0C00D877BD4680BD00BF0010005230000607DB
:101C1C000010025680B485B000AF7860074A7B682C
:101C2C00C2F8643A054BD3F86432FB60FB6800BF22
:101C3C001437BD465DF8047B704700BF0080025628
:101C4C0080B594B000AF786000227968782000F0FD
:101C5C00C9FE782000F0E3FE1020FFF7DBFF09F04F
:101C6C00BDFEF86407F10803184604F023FFFB6C73
:101C7C00124AA2FB03239B0C013BBB64104B114A81
:101C8C001A600F4B40F2E732DA600D4ABB6C5360BE
:101C9C000B4B00221A610A4B00229A6008480DF087
:101CAC004BFB0346002B04D105480DF0A7FB034664
:101CBC0000E0012318465037BD4680BD83DE1B4330
:101CCC00E0071C340010005080B400AF00BFFDE7EB
:101CDC0080B400AF00BFFDE780B400AF00BFFDE7EC
:101CEC0080B400AF00BFFDE780B400AF00BFFDE7DC
:101CFC0080B400AF00BFFDE780B400AF00BFBD46AD
:101D0C005DF8047B7047000080B500AF02480DF011
:101D1C002DFC00BF80BD00BFE0071C3480B500AFB8
:101D2C00024801F09FFC00BF80BD00BFBC051C3405
:101D3C0080B586B000AF7860144A154BD31A7B611E
:101D4C007B693B61134B1B68002B02D1114B124A70
:101D5C001A60104B1A687B6813443A699A4207D28E
:101D6C001FF080FD03460C221A604FF0FF3309E090
:101D7C00084B1B68FB60074B1A687B681344054AC9
:101D8C001360FB6818461837BD4680BD0000203430
:101D9C00000800002C081C3428391C3480B58EB087
:101DAC0008AF786000237B617B683B6115F03EFFD8
:101DBC0007F10C01002343F6586238691EF0D6F97E
:101DCC000346002B01D00223ADE0FB683C220192BC
:101DDC0043F6586200924FF4C062554955481AF0C8
:101DEC007FFE78617B69002B01D006239BE007F115
:101DFC000C0100234FF4006238691EF0B7F903465A
:101E0C00002B01D002238EE0FB684FF4FC6205929C
:101E1C000A2204924FF4006203920293464B019300
:101E2C00444B009300230022444945481AF044FDDA
:101E3C0078617B69002B01D0432374E007F10C011E
:101E4C0000234FF4806238691EF090F90346002B92
:101E5C0001D0022367E0FB684FF4806219463848D2
:101E6C001AF060FC78617B69002B01D043235AE0A7
:101E7C0033481AF0A3FC78617B69002B01D0432313
:101E8C0051E02F481AF066FF78617B69002B01D076
:101E9C00432348E02A481AF095FF78617B69002BB0
:101EAC0001D043233FE007F10C0100234FF4006203
:101EBC0038691EF05BF90346002B01D0022332E097
:101ECC00FB68B022069201220592002204920A229B
:101EDC0003920A2202924FF40062019200930023B3
:101EEC00184A194919481EF0B3FD78617B69002B1B
:101EFC0001D00E2317E0164A114916480EF000FCCB
:101F0C0078617B69002B01D090230CE01C2300220C
:101F1C00114912481EF0C4FC78617B69002B01D07A
:101F2C00902300E07B6918461837BD4680BD00BF82
:101F3C00AC241A34E0081C3431271934C0241A3468
:101F4C001C091C34851F1834D4241A3430081C3452
:101F5C00E8241A3418111C34F4241A34FC101C34E0
:101F6C0080B483B000AF7860396000BF0C37BD46D9
:101F7C005DF8047B7047000080B584B000AF7860DA
:101F8C000023FB6000220A490A481AF057FCF8604B
:101F9C0009480EF085FDF86008481FF019FC4FF059
:101FAC00FF3107481EF012FD00BF1037BD4680BD43
:101FBC006D1F18341C091C3418111C3404251A34D8
:101FCC00FC101C340F4880F30A880F48854600F03B
:101FDC002FF90E480E490F4A002302E0D458C45082
:101FEC000433C4188C42F9D30B4A0C4C002301E087
:101FFC0013600432A242FBD31FF03AFCFEF730FF11
:10200C00FEE7000000F81F340000203400001C34F0
:10201C00EC001C34A4261A34F0001C3428391C346F
:10202C00FEE780B483B000AF786039607B68002B2A
:10203C000BD03B68DB68002B07D03B689B68002B00
:10204C0003D03B681B69002B02D14FF0FF3314E027
:10205C003B681A687B689A603B685A687B68DA60F0
:10206C003B68DA687B685A613B689A687B681A61DE
:10207C003B681A697B689A61002318460C37BD4689
:10208C005DF8047B704780B586B000AF78600023A4
:10209C00FB6000237B6100233B617B685B68002B4A
:1020AC0039D17B689B68002B02D07B689B68984772
:1020BC007B6820221A6000237B611CE07B685B69D3
:1020CC0007F10C021221786998470346002B03DABA
:1020DC006FF004033B610BE0FB6803F01F037A69AC
:1020EC009A4205D17B687A691A6000233B6105E04E
:1020FC007B6901337B617B691F2BDFD97B681B6894
:10210C001F2B02D96FF002033B613B69002B02D1FC
:10211C007B6801225A603B6918461837BD4680BD62
:10212C0080B584B000AF78600023FB607B685B698E
:10213C007A68106807F10C02012198470346002BBE
:10214C0002DA6FF004036EE07B685B697A681068F2
:10215C0007F10C02012198470346002B02DA6FF0BD
:10216C00040360E0FB6803F00403002B01D101239E
:10217C0059E07B685B697A68106807F10C020021F2
:10218C0098470346002B02DA6FF004034BE0FB6820
:10219C0003F48053002B1BD1FB6803F40053002B7A
:1021AC0006D0FB6803F48073002B01D002233AE0C5
:1021BC00FB6803F40053002B01D0032333E0FB68CE
:1021CC0003F48073002B01D004232CE005232AE0B8
:1021DC007B685B697A68106807F10C021F219847CD
:1021EC000346002B02DA6FF004031CE0FB6803F4D7
:1021FC008053002B01D1062315E0FB6803F01C0370
:10220C00182B01D102230EE0FB6803F01C03082BF2
:10221C0001D1032307E0FB6803F01C03142B01D14D
:10222C00042300E0052318461037BD4680BD00008E
:10223C0080B400AF7D4B7E4A9A607E4B0122C3F87E
:10224C00182A7C4B03F580531A460123C2F8183226
:10225C00784B03F580531A460123C2F85832764B5B
:10226C0000229A60744B0022DA60734B00221A61D0
:10227C00714B01229A60704B0022DA606E4B002287
:10228C001A616D4B02229A606B4B0022DA606A4B2A
:10229C0000221A61684B03229A60674B0022DA60B5
:1022AC00654B00221A61644B04229A60624B002237
:1022BC00DA60614B00221A615F4B05229A605E4B1B
:1022CC000022DA605C4B00221A615B4B06229A609A
:1022DC00594B0022DA60584B00221A61564B0722E8
:1022EC009A60554B0022DA60534B00221A61514B15
:1022FC000122C3F8782A4F4BD3F878324B4B4F4A14
:10230C009B6813614E4B5B6B4D4A43F48073536374
:10231C004B4B9B6B4A4A43F480739363484BDB6B88
:10232C00474A43F44073D363444B40F287225A65C7
:10233C00424B40F28722DA65404B40F287225A64C6
:10234C003E4B40F28722DA643C4B40F287225A66BD
:10235C003B4BDB6B3A4A43F48053D363384BDB6B18
:10236C00374A43F01003D363354BDB6B314BD3F857
:10237C007432304A43F40043C2F874322D4BD3F814
:10238C0078322C4A43F01003C2F87832294BD3F838
:10239C007832284BD3F87832264A23F01003C2F84F
:1023AC007832244B4FF44052C3F8202A214B03F5CA
:1023BC0080531A464FF44053C2F820321D4B012271
:1023CC00C3F8242A1B4B03F580531A460123C2F889
:1023DC002432184B03F580531A460123C2F8643299
:1023EC00144B03F580531A464023C2F85C32134B4E
:1023FC001B69104B03F580531A460123C2F878323F
:10240C000A4BD3F88830094A43F47003C2F8883079
:10241C000C4BD3F888300B4A43F47003C2F8883065
:10242C0000BFBD465DF8047B704700BF00ED00E0C7
:10243C000004183400800256D0ED00E000800056F5
:10244C000048025600ED02E080B48DB000AF0023CE
:10245C00FB620023BB6200237B6200233B620023F0
:10246C00FB610023BB619B4B1B6A03F44013B3F568
:10247C00401F29D0B3F5401F00F28081B3F5001F37
:10248C001FD0B3F5001F00F27981002B03D0B3F5F8
:10249C00801F0AD072E18F4B9B6CDB0903F00303A6
:1024AC008D4A22FA03F3FB6269E18A4B5B6C03F4FD
:1024BC000073002B02D1894BFB6260E1884BFB62FD
:1024CC005DE1884BFB625AE1824BD3F8C43003F0D8
:1024DC004053B3F1005F66D0B3F1005F00F291801E
:1024EC00002B03D0B3F1805F2FD08AE0794BD3F867
:1024FC008030FB60FB6803F0E0437B61FB6803F01A
:10250C0000633B613B69002B40F0A980FB681B0D0D
:10251C0003F03F03BB62FB681B0AC3F30B037B6234
:10252C006C4BD3F8843023F07F433B62694BD3F878
:10253C008830FB60FB68DB0E03F00703FB61FB6874
:10254C001B0E03F00703BB6189E0624BD3F890309C
:10255C00FB60FB6803F0E0437B61FB6803F0006306
:10256C003B613B69002B7CD1FB681B0D03F03F03E7
:10257C00BB62FB681B0AC3F30B037B62554BD3F89E
:10258C00943023F07F433B62524BD3F89830FB607E
:10259C00FB68DB0E03F00703FB61FB681B0E03F00B
:1025AC000703BB615DE04B4BD3F8A030FB60FB68CD
:1025BC0003F0E0437B61FB6803F000633B613B6924
:1025CC00002B50D1FB681B0D03F03F03BB62FB6873
:1025DC001B0AC3F30B037B623E4BD3F8A43023F0EE
:1025EC007F433B623B4BD3F8A830FB60FB68DB0EB0
:1025FC0003F00703FB61FB681B0E03F00703BB61D1
:10260C0031E0344BD3F8B030FB60FB6803F0E043AF
:10261C007B61FB6803F000633B613B69002B24D1B9
:10262C00FB681B0D03F03F03BB62FB681B0AC3F383
:10263C000B037B62274BD3F8B43023F07F433B6210
:10264C00244BD3F8B830FB60FB68DB0E03F00703B8
:10265C00FB61FB681B0E03F00703BB6105E000BFC9
:10266C0004E000BF02E000BF00E000BF7B69B3F1F3
:10267C00405F2CD07B69B3F1405F39D87B69B3F1F3
:10268C00005F21D07B69B3F1005F31D87B69002BEF
:10269C0004D07B69B3F1805F0AD029E00D4B9B6CB1
:1026AC00DB0903F003030C4A22FA03F3FB6220E07C
:1026BC00084B5B6C03F40073002B02D1074BFB62DD
:1026CC0017E0074BFB6214E0064BFB6211E0064B74
:1026DC00FB620EE0008002560090D00300093D0022
:1026EC000024F400006CDC020080BB000000804B76
:1026FC0000BF3B69002B34D1FB6A07EE903AB8EE71
:10270C00677A7B6A07EE903AF8EE676A3B6A07EEE7
:10271C00903AB8EE676A5FED0B5AC6EE257A76EE04
:10272C00A77A67EE276ABB6A07EE903AB8EE677A2B
:10273C00C6EE877AC7ED027AFB6907EE903AB8EEDF
:10274C00677ABB6907EE903AF8EE677A27EE277A3C
:10275C00D7ED026AC6EE877AFCEEE77A17EE903A6E
:10276C00FB620B4BD3F8C4301B0CDBB201337B6028
:10277C00FA6A7B68B2FBF3F3FB6200E000BF054A28
:10278C00FB6A136000BF3437BD465DF8047B7047AD
:10279C000080025600001C346DED81CF88B500AF6F
:1027AC00FFF752FE064B1B681846BD46BDE8884035
:1027BC009FEC100A9FE80E90FDEC81CF744700BF90
:1027CC0000001C3480B500AF032000F000F9FFF7C7
:1027DC003BFE0F20FFF734FA0346002B01D00123F8
:1027EC0002E0FFF781F80023184680BD80B400AFEB
:1027FC00064B1B781A46064B1B681344044A13609D
:10280C0000BFBD465DF8047B704700BF08001C3458
:10281C006C301C3480B400AF034B1B681846BD46AB
:10282C005DF8047B704700BF6C301C3480B584B0FD
:10283C0000AF7860FFF7EEFFB8607B68FB60FB6869
:10284C00B3F1FF3F05D00A4B1B781A46FB681344C3
:10285C00FB6000BFFFF7DEFF0246BB68D31AFA68C5
:10286C009A42F7D800BF00BF1037BD4680BD00BFED
:10287C0008001C3480B485B000AF78607B6803F02E
:10288C000703FB600C4BDB68BB60BA684FF6FF03B9
:10289C001340BB60FB681A02BB68134343F0BF6371
:1028AC0043F40033BB60044ABB68D36000BF1437E9
:1028BC00BD465DF8047B704700ED00E080B400AFCE
:1028CC00044BDB681B0A03F007031846BD465DF892
:1028DC00047B704700ED00E080B483B000AF03468A
:1028EC00FB80B7F90630002B0BDBFB8803F01F02D3
:1028FC000749B7F906305B09012000FA02F241F8EA
:10290C00232000BF0C37BD465DF8047B704700BF29
:10291C0000E100E080B483B000AF03463960FB8077
:10292C00B7F90630002B0ADB3B68DAB20C49B7F971
:10293C0006301201D2B20B4483F800230AE03B6844
:10294C00DAB20849FB8803F00F03043B1201D2B240
:10295C000B441A7600BF0C37BD465DF8047B7047FC
:10296C0000E100E000ED00E080B489B000AFF86059
:10297C00B9607A60FB6803F00703FB61FB69C3F184
:10298C000703042B28BF0423BB61FB690433062B0C
:10299C0002D9FB69033B00E000237B614FF0FF325F
:1029AC00BB6902FA03F3DA43BB681A407B699A40AD
:1029BC004FF0FF317B6901FA03F3D9437B680B407D
:1029CC00134318462437BD465DF8047B704780B529
:1029DC0082B000AF78607868FFF74CFF00BF083713
:1029EC00BD4680BD80B586B000AF0346B9607A6045
:1029FC00FB81FFF763FF034603F007037B617A68F3
:102A0C00B9687869FFF7B0FF0246B7F90E30114686
:102A1C001846FFF77FFF00BF1837BD4680BD80B555
:102A2C0082B000AF0346FB80B7F906301846FFF7BB
:102A3C0053FF00BF0837BD4680BD000080B483B093
:102A4C0000AF7860BFF35F8F00BF0B4A7B6843F029
:102A5C0001035360094B5B6A084A43F480335362A9
:102A6C00BFF34F8F00BFBFF36F8F00BF00BF0C379A
:102A7C00BD465DF8047B704790ED00E000ED00E092
:102A8C0080B400AFBFF35F8F00BF0B4B5B6A0A4A89
:102A9C0023F480335362094B5B68084A23F001032B
:102AAC005360BFF34F8F00BFBFF36F8F00BF00BFEA
:102ABC00BD465DF8047B704700ED00E090ED00E052
:102ACC0080B582B000AF78607968034800F014F8E4
:102ADC0000BF0837BD4680BD90ED00E080B582B0E8
:102AEC0000AF78607968034800F03EF800BF083703
:102AFC00BD4680BD90ED00E080B483B000AF78603F
:102B0C0039603B685B781A467B689A607B681B6906
:102B1C0023F001027B681A613B685B6823F01F029B
:102B2C003B68DB7BDB001A433B681B7B5B0013437E
:102B3C003A68527B1A437B68DA603B689B6823F0E7
:102B4C001F023B689B7B1B011A433B689B785B0015
:102B5C0013433A6812781A437B681A6100BF0C372A
:102B6C00BD465DF8047B704780B487B000AF7860D9
:102B7C0039603B681B78032B06D87B6830337B614C
:102B8C003B681B783B6106E07B6834337B613B68B8
:102B9C001B78043B3B617B691B68FB603B69DB007A
:102BAC00FF2202FA03F3DB43FA681340FB603B6835
:102BBC005B781A463B69DB009A40FB681A437B69D9
:102BCC001A6000BF1C37BD465DF8047B70470000DF
:102BDC0080B584B000AF78607B68002B01D10123F5
:102BEC00E9E07B68D3F8F830002B06D17B68202213
:102BFC00C3F8F8207868FEF791FE7B681B7A002BEF
:102C0C0006D16F4B6E4AD3F84831C2F8483114E004
:102C1C007B681B7A032B08D1694BD3F84831684A7F
:102C2C0043F48033C2F8483107E0654BD3F84831A0
:102C3C00634A43F48023C2F848317B681B6803F570
:102C4C0080531B687A68126843F0010302F58052C6
:102C5C001360FFF7DFFDB86011E0FFF7DBFD024604
:102C6C00BB68D31AB3F5FA7F09D97B680422C3F881
:102C7C00FC207B68E022C3F8F82001239BE07B68F2
:102C8C001B6803F580531B6803F00103002BE4D190
:102C9C00786801F071FA03F0FEFE0346494AA2FB84
:102CAC0003239A0C7B681B68013AC3F8DC20786814
:102CBC0001F006FD786801F0E3FE786801F05CFF36
:102CCC007B68DB6903F00303002B09D07B680122CE
:102CDC00C3F8FC207B68E022C3F8F82001236AE0EB
:102CEC000023FB601CE07B681A68FB68DB01134463
:102CFC0003F5885308331B6823F47F5323F03E03FA
:102D0C007A68D2695200796809681A43FB68DB015A
:102D1C000B4403F5885308331A60FB680133FB60DE
:102D2C00FB68012BDFD97B685B6805331B781A02C3
:102D3C007B685B6804331B7819467B681B680A4305
:102D4C00C3F800237B685B6803331B781A067B6827
:102D5C005B6802331B781B041A437B685B68013386
:102D6C001B781B021A437B685B681B7819467B68CF
:102D7C001B680A43C3F804237B681B68D3F80C1741
:102D8C007B681A68104B0B43C2F80C377B681B68C6
:102D9C00D3F810377A68126843F0426343F4404327
:102DAC00C2F810377B680022C3F8FC207B68102225
:102DBC00C3F8F820002318461037BD4680BD00BF6D
:102DCC000080025683DE1B436000020C80B584B089
:102DDC0000AF78607B68D3F8F830102B40F0A080FF
:102DEC007B682022C3F8F8200023FB607BE07B6823
:102DFC00FA68C3F820217968FA6813461B019B1AFC
:102E0C009B000B44903301221A607968FA681346D0
:102E1C001B019B1A9B000B44A43304221A60786894
:102E2C0000F0F2FA7B681A68FB68DB01134403F5C7
:102E3C00895314331B687A68116843F4504242F08A
:102E4C00C102FB68DB010B4403F5895314331A6090
:102E5C007B681A68FB68DB01134403F5885308335D
:102E6C001B687A68116843F00102FB68DB010B44B4
:102E7C0003F5885308331A607B681A68FB68DB011A
:102E8C00134403F58B531B687A68116843F4817201
:102E9C00FB68DB010B4403F58B531A607B681A68E3
:102EAC00FB6834339B0113441B687A68116843F048
:102EBC000102FB6834339B010B441A607B681A686F
:102ECC00FB682233DB01134404331B687A681168F6
:102EDC0043F00102FB682233DB010B4404331A601C
:102EEC00FB680133FB60FB68012B80D97B680022F7
:102EFC00C3F820217B681B681A687B681B6842F04A
:102F0C0002021A607B681B681A687B681B6842F0B7
:102F1C0001021A607B684022C3F8F820002300E00D
:102F2C00012318461037BD4680BD80B485B000AF74
:102F3C0078607B68D3F8F830402B58D17B6820221E
:102F4C00C3F8F8200023FB6038E07B681A68FB6844
:102F5C002233DB01134404331B687A68116823F0B5
:102F6C000102FB682233DB010B4404331A607B68DB
:102F7C001A68FB68DB01134403F5885308331B689C
:102F8C007A68116823F00102FB68DB010B4403F53E
:102F9C00885308331A607B681A68FB6834339B01CA
:102FAC0013441B687A68116843F00102FB683433E0
:102FBC009B010B441A60FB680133FB60FB68012B1F
:102FCC00C3D97B681B681A687B681B6822F00102F6
:102FDC001A607B681B681A687B681B6822F0020207
:102FEC001A607B681022C3F8F820002300E001234C
:102FFC0018461437BD465DF8047B704790B585B014
:10300C0000AF786039603B68002B09D17B68D3F83E
:10301C00FC3043F001027B68C3F8FC20012376E00E
:10302C007B68D3F8F830402B70D13B681B68FB6091
:10303C003B68996B7868FA6813465B0013441B0174
:10304C0003444433196001223968786801F038FE72
:10305C000346002B09D07B68D3F8FC3043F0020206
:10306C007B68C3F8FC20012351E07968FB685A1C8B
:10307C0013465B0013441B010B441B68591C7868F6
:10308C00FB685A1C13465B0013441B010344196074
:10309C007968FB685A1C13465B0013441B010B44F4
:1030AC001B68032B12D97968FB685A1C13465B000A
:1030BC0013441B010B441B68191F7868FB685A1CCE
:1030CC0013465B0013441B0103441960BFF34F8F7D
:1030DC0000BF7968FB685A1C13465B0013441B0144
:1030EC000B441C687B6819687868FA6813465B00A7
:1030FC0013449B002344083350F82320FB68DB0166
:10310C000B4403F589531A60002300E00123184691
:10311C001437BD4690BD80B58CB000AF7860396077
:10312C007B68D3F82031BB6100233B620023FB7723
:10313C003B68002B09D17B68D3F8FC3043F00102CB
:10314C007B68C3F8FC2001235AE17B68D3F8F83084
:10315C00402B01D0012353E17968BA6913461B0156
:10316C009B1A9B000B4494331B68FB627968BA6909
:10317C0013461B019B1AFA6A1344203351F823306F
:10318C007B627968BA6913461B019B1A9B000B443E
:10319C00A4331B68C3F104037B61DEE07B6ADB684C
:1031AC0003F00053002B0BD17968BA6913461B014D
:1031BC009B1A9B000B44B4331B68002B00F0B680A9
:1031CC007B6ADB6803F00053002B13D07968BA6973
:1031DC0013461B019B1A9B000B44983300221A6068
:1031EC007968BA6913461B019B1A9B000B449C33EC
:1031FC0000221A607B6ADB68C3F30E017868BA6937
:10320C0013461B019B1A9B0003449C331B68CB1A6F
:10321C003B617B6ADB6803F08053002B44D07B6AF4
:10322C00D9687868BA6913461B019B1A9B00034442
:10323C00A83319600123FB777B6A5B6803F4804336
:10324C00002B31D0FB6ABB62BB6A0133BB62BB6A29
:10325C00032B02D9BB6A043BBB627968BA6913467B
:10326C001B019B1ABA6A1344203351F82330FB60BC
:10327C00FB68DB6803F08043002B15D0FB685968B2
:10328C007868BA6913461B019B1A9B000344B03340
:10329C001960FB6819687868BA6913461B019B1A98
:1032AC009B000344AC331960BA6913461B019B1A8B
:1032BC009B00B0337A681344181DBA6913461B017E
:1032CC009B1A9B00B8337A68D1187B6A1B691A4623
:1032DC003B699BB210F074F87968BA6913461B010C
:1032EC009B1A9B000B4498331B68591C7868BA696D
:1032FC0013461B019B1A9B00034498331960796891
:10330C00BA6913461B019B1A9B000B449C331A6829
:10331C003B69D1187868BA6913461B019B1A9B004C
:10332C0003449C3319607B6A00221A61FB6A0133E7
:10333C00FB62FB6A032B02D9FB6A043BFB627968D4
:10334C00BA6913461B019B1AFA6A1344203351F8CD
:10335C0023307B623B6A01333B627B6ADB68002B68
:10336C0007DB3A6A7B699A4203D2FB7F002B3FF45E
:10337C0015AF7968BA6913461B019B1A9B000B4465
:10338C00A4331A683B6AD1187868BA6913461B01D2
:10339C009B1A9B000344A43319607968BA691346DD
:1033AC001B019B1A9B000B44A4331B68002B02D0FF
:1033BC00786800F029F87968BA6913461B019B1AE2
:1033CC009B000B449433FA6A1A60FB7F012B16D1D5
:1033DC007968BA6913461B019B1A9B000B44B433E2
:1033EC001A683B681A607968BA6913461B019B1A04
:1033FC009B000B44B43300221A60002300E001232D
:10340C0018463037BD4680BD80B58AB000AF7860B5
:10341C007B68D3F820317B610023FB600123FB76B2
:10342C0079687A6913461B019B1A9B000B44A033E5
:10343C001B687B6279687A6913461B019B1A7A6A4E
:10344C001344203351F82330FB6179687A691346B1
:10345C001B019B1A9B000B44A4331B683B6249E085
:10346C00FB691B69002B13D107F10C0318460FF0F5
:10347C0057FFFB68002B02D10023FB760CE0FB68A6
:10348C001A46FB691A61FB681A46FB691A6003E06D
:10349C00FB691A69FB691A60FB7E002B2AD07968DC
:1034AC007A6913461B019B1A9B000B4490331B68D3
:1034BC00002B04D0FB694FF04142DA6003E0FB695A
:1034CC004FF00142DA607B6A01337B627B6A032B2B
:1034DC0002D97B6A043B7B6279687A6913461B01CB
:1034EC009B1A7A6A1344203351F82330FB613B6AF0
:1034FC00013B3B623B6A002B02D0FB7E002BAFD121
:10350C0079687A6913461B019B1A9B000B44A43300
:10351C001B683A6A9A4230D07B6A033303F0030388
:10352C003B61BFF35F8F00BF7A687B6904339B00FC
:10353C00134459683A6913465B001344DB00194481
:10354C007B681A687B69DB01134403F589530833E4
:10355C00196079687A6913461B019B1A9B000B440E
:10356C00A0337A6A1A6079687A6913461B019B1A30
:10357C009B000B44A4333A6A1A6000BF2837BD463F
:10358C0080BD80B588B000AF78607B68D3F81C3103
:10359C003B613A6913465B0013441B0120337A6884
:1035AC001344FB60FB689B6AFB61FB68DB6ABB61D5
:1035BC000123FB754BE00123BB75FB69013BFB61F0
:1035CC00FA68BB6904339B0013445B68002B0AD177
:1035DC00BB690133BB61BB69032B02D9BB69043BDB
:1035EC00BB610023BB75BB7D002B30D07A683B6977
:1035FC0002339B0013445968BA6913465B001344A9
:10360C00DB000B44DB68002B1FDBFA68BB6904335F
:10361C009B0013445B6818460FF04CFEFA68BB69BC
:10362C0004339B00134400225A60BB690133BB6115
:10363C00BB69032B02D9BB69043BBB61FB68FA690C
:10364C009A62FB68BA69DA6201E00023FB75FB69D8
:10365C00002B02D0FB7D002BADD100231846203768
:10366C00BD4680BD80B588B000AF78607B681B68B4
:10367C00D3F8B030FB617B681B6803F58053D3F83B
:10368C006031BB617B681B6803F58053D3F8E03174
:10369C007B617B681B6803F58053D3F834313B6145
:1036AC007B681B6803F58053D3F8B431FB608F4BF8
:1036BC00D3F89030BB60BB6903F04003002B20D0E3
:1036CC003B6903F04003002B1BD07B681B6803F5A0
:1036DC0080531A4648F24003C2F860317B68D3F835
:1036EC00183143F001027B68C3F8182178680FF099
:1036FC00A9FE7B68D3F8183123F001027B68C3F86C
:10370C0018217B6903F04003002B20D0FB6803F0E9
:10371C004003002B1BD07B681B6803F580531A46B3
:10372C0048F24003C2F8E0317B68D3F8183143F01B
:10373C0002027B68C3F8182178680FF083FE7B685F
:10374C00D3F8183123F002027B68C3F81821BB6947
:10375C0003F00103002B20D03B6903F00103002B85
:10376C001BD07B681B6803F580531A4648F2010393
:10377C00C2F860317B68D3F8143143F001027B68E6
:10378C00C3F8142178680FF08DFE7B68D3F81431E0
:10379C0023F001027B68C3F814217B6903F0010359
:1037AC00002B20D0FB6803F00103002B1BD07B689F
:1037BC001B6803F580531A4648F20103C2F8E03146
:1037CC007B68D3F8143143F002027B68C3F81421F0
:1037DC0078680FF067FE7B68D3F8143123F002028F
:1037EC007B68C3F81421BB6903F48043002B47D0DA
:1037FC003B6903F48043002B42D07B68D3F8FC3048
:10380C0043F010027B68C3F8FC20BB6903F48053BF
:10381C00002B1ED07B681B6803F58053D3F8602106
:10382C0041F2021313407A68C2F800317B681B68BE
:10383C0003F58053D3F834317A68126823F440438B
:10384C0002F58052C2F834317B68E022C3F8F820CC
:10385C0013E07B681B6803F58053D3F8603103F4E5
:10386C00CD427B68C3F800217B681B6803F580534D
:10387C001A464FF4CD43C2F86031786800F0B0F8C6
:10388C007B6903F48043002B49D0FB6803F480432D
:10389C00002B44D07B68D3F8FC3043F020027B68CB
:1038AC00C3F8FC207B6903F48053002B20D07B6889
:1038BC001B6803F58053D3F8E02141F20213134047
:1038CC007A68C2F800317B681B6803F58053D3F823
:1038DC00B4317A68126823F4404302F58052C2F87E
:1038EC00B4317B68E022C3F8F82015E00050025692
:1038FC007B681B6803F58053D3F8E03103F4CD42A9
:10390C007B68C3F800217B681B6803F580531A465B
:10391C004FF4CD43C2F8E031786800F061F8FB69F0
:10392C0003F48043002B04D1FB6903F40053002BF8
:10393C0019D07B68D3F8FC3043F080027B68C3F865
:10394C00FC207B681B68D3F8B8207B68C3F8042183
:10395C007B68E022C3F8F820786800F041F87B68B7
:10396C000022C3F80421FB6903F01003002B0FD0D5
:10397C007B681B68D3F8C03003F060027B68C3F827
:10398C000821786800F036F87B680022C3F808211B
:10399C00FB6903F02003002B0FD07B681B68D3F866
:1039AC00D03003F00F027B68C3F80C21786800F06C
:1039BC002BF87B680022C3F80C21BB6803F40023AE
:1039CC00002B07D0054B4FF40022C3F890207868E9
:1039DC0000F024F800BF2037BD4680BD00500256D1
:1039EC0080B483B000AF786000BF0C37BD465DF883
:1039FC00047B704780B483B000AF786000BF0C3795
:103A0C00BD465DF8047B704780B483B000AF78602E
:103A1C0000BF0C37BD465DF8047B704780B483B0A3
:103A2C0000AF786000BF0C37BD465DF8047B704773
:103A3C0080B586B000AFF860B9607A603B60FB6817
:103A4C001B68D3F8003203F00103002B01D00123D3
:103A5C003EE0FB681B68D3F800327B617B6923F086
:103A6C007872BB685B0513437B617B6923F4F812A6
:103A7C007B681B0413437B617B6943F00C037B6104
:103A8C007B6943F001037B61FB681B687A69C3F8AF
:103A9C000022FEF7BFFE386109E0FEF7BBFE0246CE
:103AAC003B69D31AB3F57A7F01D9012310E0FB6887
:103ABC001B68D3F8003203F00103002BEDD1FB6837
:103ACC001B68D3F804329BB21A463B681A60002379
:103ADC0018461837BD4680BD80B586B000AFF8607B
:103AEC00B9607A603B60FB681B68D3F8003203F066
:103AFC000103002B01D001233EE0FB681B68D3F8C7
:103B0C0000327B617B6923F07872BB685B051343E1
:103B1C007B617B6923F4F8127B681B0413437B6184
:103B2C007B6923F00C0343F004037B617B6943F056
:103B3C0001037B613B689AB2FB681B68C3F80422E3
:103B4C00FB681B687A69C3F80022FEF763FE3861D4
:103B5C0009E0FEF75FFE02463B69D31AB3F57A7FA4
:103B6C0001D9012308E0FB681B68D3F8003203F08D
:103B7C000103002BEDD1002318461837BD4680BD3C
:103B8C0080B483B000AF786039603B68002B01D102
:103B9C000123A1E17B681B681B6803F00C023B68E6
:103BAC00DA627B681B681B6803F01003002B14BFE0
:103BBC0001230023DBB21A463B6883F828207B687C
:103BCC001B681B6803F060023B685A627B681B68C9
:103BDC001B6803F48073002B0CBF01230023DBB2A2
:103BEC001A463B6883F820207B681B681B6803F42B
:103BFC000073002B14BF01230023DBB21A463B6871
:103C0C00DA777B681B681B6803F48063002B0CBF9E
:103C1C0001230023DBB21A463B689A777B681B684A
:103C2C001B6803F40063002B14BF01230023DBB2D9
:103C3C001A463B685A777B681B681B6803F48053F1
:103C4C00002B14BF01230023DBB21A463B681A7702
:103C5C007B681B681B6803F400523B689A617B68A5
:103C6C001B681B6803F480423B685A617B681B68C5
:103C7C001B6803F40043002B14BF01230023DBB2A9
:103C8C001A463B68DA747B681B681B6803F4803344
:103C9C00002B14BF01230023DBB21A463B689A7435
:103CAC007B681B681B6803F40033002B0CBF0123DB
:103CBC000023DBB21A463B685A747B681B681B688E
:103CCC0003F48023002B14BF01230023DBB21A461C
:103CDC003B6883F857207B681B681B6803F4002340
:103CEC00002B0CBF01230023DBB21A463B681A746D
:103CFC007B681B681B6803F48013002B14BF012323
:103D0C000023DBB21A463B68DA737B681B681B68BE
:103D1C0003F40013002B14BF01230023DBB21A465B
:103D2C003B689A737B681B681B6803F48003002B49
:103D3C0014BF01230023DBB21A463B685A737B681D
:103D4C001B681B6803F40003002B14BF0123002322
:103D5C00DBB21A463B681A737B681B681B6803F05E
:103D6C00E0623B689A607B681B681B6803F0006329
:103D7C00002B14BF01230023DBB21A463B681A71D7
:103D8C007B681B681B6803F0E0423B681A607B6829
:103D9C001B685B68C3F30D023B685A637B681B6846
:103DAC005B6803F48033002B0CBF01230023DBB2D0
:103DBC001A463B6883F832207B681B685B6803F407
:103DCC000033002B14BF01230023DBB21A463B68DF
:103DDC0083F831207B681B685B6803F48023002B1D
:103DEC0014BF01230023DBB21A463B6883F8302052
:103DFC007B681B685B6803F08073002B14BF012386
:103E0C000023DBB21A463B6883F838207B681B68BA
:103E1C005B685B0E03F01F023B68DA637B681B6810
:103E2C00DB6803F48073002B14BF01230023DBB287
:103E3C001A463B6883F840207B681B68DB6803F0FC
:103E4C000F023B685A647B681B681B6F03F002030C
:103E5C00002B14BF01230023DBB21A463B6883F806
:103E6C0054207B681B681B6F03F08003002B0CBF76
:103E7C0001230023DBB21A463B6883F84C207B6895
:103E8C001B681B6F03F070023B681A657B681B682C
:103E9C001B6F1B0C9AB23B689A647B681B68D3F847
:103EAC00903003F00103002B14BF01230023DBB27D
:103EBC001A463B6883F856207B681B68D3F8903011
:103ECC0003F00203002B14BF01230023DBB21A46BC
:103EDC003B6883F85520002318460C37BD465DF827
:103EEC00047B704780B485B000AF786039603B6864
:103EFC00002B01D1012304E17B681B6803F580537F
:103F0C005B6803F48053002B14BF01230023DBB246
:103F1C001A463B6883F83C207B681B6803F580538A
:103F2C005B6803F001023B681A647B681B6803F54D
:103F3C0080535B6803F440323B685A647B681B68AF
:103F4C0003F580535B6803F040723B689A647B68AE
:103F5C001B6803F580531B6803F00C023B689A63E3
:103F6C007B681B6803F580531B6803F40063002B0C
:103F7C0014BF01230023DBB21A463B6883F85020A0
:103F8C007B681B6803F580535B6803F0FE023B689B
:103F9C00DA640023FB60AFE07B681A68FB68DB0126
:103FAC00134403F5885308331B6803F47C113868F9
:103FBC00FA681346DB009B1A9B0003441433196008
:103FCC007B681A68FB682233DB01134404331B68DB
:103FDC0003F01003002B14BF01230023DBB218469F
:103FEC003968FA681346DB009B1A9B000B440833B4
:103FFC0002461A707B681A68FB682233DB01134493
:10400C0004331B6803F48053002B14BF01230023DB
:10401C00DBB218463968FA681346DB009B1A9B0022
:10402C000B44093302461A707B681A68FB6822330A
:10403C00DB01134404331B6803F47C113868FA6801
:10404C001346DB009B1A9B000344043319607B6806
:10405C001A68FB682233DB0113441B6803F4E0117C
:10406C003868FA681346DB009B1A9B0003440C3338
:10407C0019607B681A68FB682233DB0113441B68E8
:10408C0003F48033002B14BF01230023DBB218464A
:10409C003968FA681346DB009B1A9B000B440246F6
:1040AC001A707B681A68FB68DB01134403F58853AC
:1040BC0008331B68DB0FDBB218463968FA68134605
:1040CC00DB009B1A9B000B44103302461A707B6872
:1040DC001A68FB682233DB0113441B68C3F30D0120
:1040EC003868FA681346DB009B1A9B0003441833AC
:1040FC001960FB680133FB60FB68012B7FF64CAF4A
:10410C00002318461437BD465DF8047B704780B514
:10411C0082B000AF786039603B68002B01D101237D
:10412C000BE07B68D3F8F830102B05D13968786830
:10413C0000F0ECF8002300E0012318460837BD46D8
:10414C0080BD80B582B000AF786039603B68002BD1
:10415C0001D101230BE07B68D3F8F830102B05D18B
:10416C003968786800F0C8F9002300E0012318468C
:10417C000837BD4680BD000080B584B000AF7860C4
:10418C007B681B68D3F80032FB60FB6823F4706318
:10419C00FB6002F080FCB860BB68234A934204D8F1
:1041AC00FB6843F40073FB6034E0BB681F4A934226
:1041BC0004D2FB6843F44073FB602BE0BB681C4AE1
:1041CC00934227D9BB681B4A934204D8FB6843F43B
:1041DC008073FB601EE0BB68174A934204D8FB68EF
:1041EC0043F48063FB6015E0BB68144A934204D827
:1041FC00FB6843F4A063FB600CE0BB68104A93427D
:10420C0004D8FB6843F4C063FB6003E0FB6843F431
:10421C00E063FB607B681B68FA68C3F8002200BF90
:10422C001037BD4680BD00BFBF0E1602008793033A
:10423C00FFE0F5057FD1F0087FB2E60EFFA2E11199
:10424C00FF64CD1D80B485B000AF786039603B68E9
:10425C00002B01D1012339E03B681B781A463B68DF
:10426C00DB785B001A433B681B799B001A433B6865
:10427C001B7ADB001A433B685B791B0113433A68DA
:10428C00527A012A01D1202200E000221A433B6815
:10429C00DB791B021A433B689B795B021A433B6830
:1042AC009B789B021A433B685B78DB071A433B689D
:1042BC00DB681343FB607B681B689A68064B1340F2
:1042CC007A681268F9680B43936000231846143718
:1042DC00BD465DF8047B704700F8CE7F80B485B096
:1042EC0000AF78607B68D3F81C31FB607968FA68A2
:1042FC0013465B0013441B010B4448331B681846E0
:10430C001437BD465DF8047B7047000080B485B05F
:10431C0000AF786039603B689A683B681B681A4349
:10432C003B681B79DB061A433B681B7BDB051A4396
:10433C003B685B7B9B051A433B689B7B5B051A4385
:10434C003B68DB7B1B0513433A68127C002A02D1C5
:10435C004FF4002200E000221A433B6893F85730D8
:10436C009B0413433A68527C002A02D14FF400326A
:10437C0000E000221A433B689B7C1B041A433B68F9
:10438C00DB7CDB031A433B685B691A433B689B6924
:10439C001A433B681B7F1B031A433B685B7FDB02A2
:1043AC0013433A68927F002A02D14FF4806200E0F6
:1043BC0000221A433B68DB7F5B0213433A6892F896
:1043CC002020002A02D14FF4807200E000221A4310
:1043DC003B685B6A1A433B6893F828301B011A430D
:1043EC003B68DB6A1343FB607B681B681A68404BB5
:1043FC0013407A681268F9680B4313603B68DB6BF7
:10440C005A063B6893F838301B061A433B6893F8FE
:10441C0030309B041A433B6893F831305B041343F0
:10442C003A6892F83220002A02D14FF4803200E030
:10443C0000221A433B685B6B1343FB607B681B6871
:10444C005A682C4B13407A681268F9680B43536016
:10445C003B6893F840301A023B685B6C1343FB607B
:10446C007B681B68DB6823F4877323F001037A688D
:10447C001268F9680B43D3603B6893F854305A00C8
:10448C003B681B6D13433A6892F84C20002A01D10B
:10449C00802200E000221A433B689B6C1B041343F0
:1044AC00FB607B681B681A6F4FF60C7313407A68BD
:1044BC001268F9680B4313673B6893F856301A4639
:1044CC003B6893F855305B001343FB607B681B68BB
:1044DC00D3F8903023F003017B681B68FA680A4319
:1044EC00C3F8902000BF1437BD465DF8047B7047BD
:1044FC008300040000C0F88080B485B000AF786001
:10450C0039603B689A6B3B6893F85030DB0213437D
:10451C00BB607B681B6803F580531A68644B1340BF
:10452C007A681268B9680B4302F5805213603B68D5
:10453C0093F83C301A033B681B6C1A433B685B6C6A
:10454C001A433B689B6C1A433B68DB6C1343BB60A0
:10455C007B681B6803F580535A68564B13407A6886
:10456C001268B9680B4302F5805253600023FB605C
:10457C0093E03968FA681346DB009B1A9B000B44E6
:10458C001B7819043868FA681346DB009B1A9B00E9
:10459C0003440C331B6819433868FA681346DB0074
:1045AC009B1A9B00034418331B680B43BB607B684E
:1045BC001A68FB682233DB0113441A683E4B134024
:1045CC007A681168BA681A43FB682233DB010B4422
:1045DC001A603968FA681346DB009B1A9B000B447F
:1045EC00043319683868FA681346DB009B1A9B0081
:1045FC00034408331B781B0119433868FA681346C7
:10460C00DB009B1A9B00034409331B781B030B43F1
:10461C00BB607B681A68FB682233DB0113440433EC
:10462C001A68264B13407A681168BA681A43FB68FB
:10463C002233DB010B4404331A603968FA681346E1
:10464C00DB009B1A9B000B4410331B78D90738688E
:10465C00FA681346DB009B1A9B00034414331B6857
:10466C000B43BB607B681A68FB68DB01134403F5E2
:10467C00885308331B6823F0004323F47C137A68B7
:10468C001168BA681A43FB68DB010B4403F58853C5
:10469C0008331A60FB680133FB60FB68012B7FF663
:1046AC0068AF00BF00BF1437BD465DF8047B704790
:1046BC00E2F6FCFF00CBFC3C00C0E2FFEFEFC0FFDA
:1046CC0080B5C4B000AF07F58873A3F58673186086
:1046DC0007F1B0035822002118461DF09AF807F193
:1046EC005C035422002118461DF093F8012387F82F
:1046FC00BF300023C7F8D430002387F8CD30002317
:10470C0087F8CF30012387F8B430012387F8E230E3
:10471C00012387F8BE30002387F8D8304FF40053BC
:10472C00C7F8C830002387F8E8300023C7F8EC300E
:10473C004FF4C363C7F8E430002387F8BC30002380
:10474C00C7F8B830012387F8C130002387F8C2308E
:10475C00002387F8CC30002387F8073107F58873DE
:10476C00A3F586731B681B7A032B03D1002387F8F0
:10477C00C33002E0012387F8C3300023C7F80031AF
:10478C000023C7F8F8300023C7F8DC30002387F883
:10479C00F030002387F80631012387F8CE3001234F
:1047AC0087F8D030002387F8E1304FF04053C7F83A
:1047BC00B0300023C7F8C430002387F8BD30002385
:1047CC0087F80431002387F80531002387F8E0309F
:1047DC00012387F8C0300023C7F8F430012387F891
:1047EC00FC3007F1B00207F58873A3F58673114608
:1047FC001868FFF78BFD0023C7F894304FF48073D3
:10480C00C7F8A83000233B666023FB65012387F8BB
:10481C00AC300223C7F884300823C7F89830002343
:10482C00BB670023C7F80C315FE0D7F80C211346A7
:10483C009B0013449B0003F588733B44843B01228B
:10484C001A70D7F80C2113469B0013449B0003F5F8
:10485C0088733B44833B00221A70D7F80C21134613
:10486C009B0013449B0003F588733B44823B00225E
:10487C001A70D7F80C2113469B0013449B0003F5C8
:10488C0088733B44803B20221A60D7F80C211346D6
:10489C009B0013449B0003F588733B44883B4FF407
:1048AC0070021A60D7F80C3101331B0103F58873C1
:1048BC003B44B03B02221A60D7F80C311B0103F5C4
:1048CC0088733B44AC3B08221A60D7F80C31013397
:1048DC001B0103F588733B44B43B4FF4E0221A6090
:1048EC00D7F80C310133C7F80C31D7F80C31012B48
:1048FC009BD907F15C0207F58873A3F58673114603
:10490C00186800F081FC07F58873A3F58473012205
:10491C0083F83C2007F58873A3F584730222DA64CC
:10492C0007F58873A3F5847301221A6407F588735D
:10493C00A3F584734FF440325A6407F58873A3F5DA
:10494C0084734FF040729A6407F58873A3F58473EF
:10495C0000229A6307F58873A3F58473002283F809
:10496C0050200023C7F8083177E007F58873A3F5CA
:10497C008471D7F808211346DB009B1A9B000B446B
:10498C00103300221A7007F58873A3F58471D7F8D9
:10499C0008211346DB009B1A9B000B4400221A7063
:1049AC0007F58873A3F58471D7F808211346DB004B
:1049BC009B1A9B000B4414334FF400121A6007F53A
:1049CC008873A3F58471D7F808211346DB009B1A72
:1049DC009B000B44083300221A7007F58873A3F56B
:1049EC008471D7F808211346DB009B1A9B000B44FB
:1049FC00093300221A7007F58873A3F58471D7F870
:104A0C0008211346DB009B1A9B000B4404334FF424
:104A1C0000121A6007F58873A3F58471D7F8082182
:104A2C001346DB009B1A9B000B440C334FF4802283
:104A3C001A6007F58873A3F58471D7F8082113461B
:104A4C00DB009B1A9B000B4418334FF406721A6060
:104A5C00D7F808310133C7F80831D7F80831012BE2
:104A6C0083D907F1080207F58873A3F586731146FD
:104A7C001868FFF741FD00BF07F58877BD4680BD7C
:104A8C0080B487B000AF786000233B613AE000232C
:104A9C007B6127E07A683B6902339B0013445968B9
:104AAC007A6913465B001344DB000B44FB60FB6824
:104ABC0000221A60FB6800225A60FB6800229A6090
:104ACC00FB680022DA60F86879683A6913465B0083
:104ADC0013449B007A691344083341F823007B6923
:104AEC0001337B617B69032BD4D979683B695A1CF0
:104AFC0013465B0013441B010B4400221A603B69F4
:104B0C0001333B613B69012BC1D900233B6129E097
:104B1C007B681A683B69DB01134403F589530C333A
:104B2C0003221A607A683B6902339B00134459686C
:104B3C007B681A683B69DB01134403F58853143313
:104B4C0019607A683B6902339B00134459687B688F
:104B5C001A683B69DB01134403F5895319603B69FF
:104B6C0001333B613B69012BD2D900BF00BF1C371D
:104B7C00BD465DF8047B704780B487B000AF7860A9
:104B8C0000233B6191E000237B612CE07A683B6958
:104B9C0004339B00134459687A6913465B00134431
:104BAC00DB000B44FB60FB6800221A60FB680022F0
:104BBC005A60FB6800229A60FB680022DA60FB688E
:104BCC0000221A61FB6800225A61F86879683A6918
:104BDC0013461B019B1A7A691344203341F82300B6
:104BEC007B6901337B617B69032BCFD979683A6987
:104BFC0013461B019B1A9B000B44943300221A6032
:104C0C0079683A6913461B019B1A9B000B44983335
:104C1C0000221A6079683A6913461B019B1A9B00A3
:104C2C000B44A03300221A6079683A6913461B01C1
:104C3C009B1A9B000B44A43300221A6079683A69D2
:104C4C0013461B019B1A9B000B44903300221A60E5
:104C5C007B681A683B69DB01134403F589531033F5
:104C6C0003221A607A683B6904339B001344596829
:104C7C007B681A683B69DB01134403F588531C33CA
:104C8C0019607A683B6904339B0013445B6803F139
:104C9C0048017B681A683B69DB01134403F58953AF
:104CAC00083319603B6901333B613B69012B7FF68B
:104CBC006AAF00BF00BF1C37BD465DF8047B704770
:104CCC0080B493B000AFF860B9607A60BB681B68C1
:104CDC00FB62FA6A13465B0013441B012033FA682B
:104CEC001344BB62BB6A1B697B64BB6A1B697B6236
:104CFC000023FB63BB6A7A6C53F82230BB63BB683E
:104D0C00DB687B6300233B63BB6BDB6803F0004316
:104D1C00B3F1004F07D0BA6A7B6C04339B00134489
:104D2C005B68002B01D0022367E2BB685B6803F071
:104D3C000403002B44D0BB6BDB681B0C1B04BA6850
:104D4C00926A1A43BB6BDA60BB6BDB6843F480324C
:104D5C00BB6BDA60FB681B681A6EFB681B6842F45D
:104D6C0080121A66BB685B6803F00803002B27D01F
:104D7C00BB6B9B689AB2BB681B6B1B041A43BB6B67
:104D8C009A60BB6BDB6843F40032BB6BDA60BB6BC5
:104D9C00DB6823F44022BB685B6B1A43BB6BDA60A5
:104DAC00FB681B685A6EFB681B6842F480125A66DB
:104DBC00FB681B681A6DFB681B6842F080621A6501
:104DCC00BB685B6803F01003002B10D0BB6B9B68B7
:104DDC0023F47F5323F03F03BA68D2691A43BB6BA9
:104DEC009A60BB6BDB6843F08062BB6BDA60BB68BC
:104DFC005B6803F00403002B05D1BB685B6803F010
:104E0C001003002B36D0BB6BDB6843F08042BB6BCE
:104E1C00DA60BFF35F8F00BFBB6BDB6843F000420F
:104E2C00BB6BDA607B6C01337B647B6C032B02D92C
:104E3C007B6C043B7B64BB6A7A6C53F82230BB639B
:104E4C00FB6B0133FB63BB6BDB6803F00043B3F11B
:104E5C00004F0FD1BB6A7A6A53F82230BB63BFF3A1
:104E6C005F8F00BFBB6BDB6823F00042BB6BDA606B
:104E7C000223C2E1FB6B0133FB637B6B1B681A469D
:104E8C00BB6B1A60BB6B9B6823F47F5323F03F030F
:104E9C007A6B52681A43BB6B9A607B6B9B68002BD6
:104EAC0014D07B6B9B687B637B6B1B681A46BB6B5C
:104EBC005A60BB6B9B6823F07F5323F47C137A6B93
:104ECC00526812041A43BB6B9A600AE0BB6B002257
:104EDC005A60BB6B9B6823F07F5323F47C13BA6B33
:104EEC009360BB685B6803F01003002B19D0BB6B9D
:104EFC00DB6823F4F002BB685B6ADB041A43BB6B10
:104F0C00DA60BB6BDB689B0C9B04BA68126A1A43B1
:104F1C00BB6BDA60BB6BDB6843F48022BB6BDA6083
:104F2C0028E0BB6BDB6823F4FF4323F07F03BA68F4
:104F3C0092681A43BB6BDA60BB685B6803F00103D1
:104F4C00002B08D0BB6BDB6823F44032BB689B6939
:104F5C001A43BB6BDA60BB685B6803F02003002B61
:104F6C0008D0BB6BDB6823F04062BB685B691A43FB
:104F7C00BB6BDA60BB685B6803F00403002B08D0E2
:104F8C00BB6B9B6823F44042BB68DB6A1A43BB6B68
:104F9C009A60BB6BDB6843F00052BB6BDA60BB6B97
:104FAC00DB6823F08042BB6BDA60BFF35F8F00BF1E
:104FBC00BB6BDB6843F00042BB6BDA60BB685B68C1
:104FCC0003F00203002B00F0D980BB6BDB6823F0ED
:104FDC006072BB681B691A43BB6BDA60CEE0BB6BBB
:104FEC00DB6823F08052BB6BDA607B6C01337B6433
:104FFC007B6C032B02D97B6C043B7B64BB6A7A6CA5
:10500C0053F82230BB63BB6BDB6823F00052BB6BE5
:10501C00DA60BB6BDB6803F00043B3F1004F07D0E1
:10502C00BA6A7B6C04339B0013445B68002B29D059
:10503C007B6A7B64BB6A7A6C53F82230BB630023B7
:10504C003B6419E0BFF35F8F00BFBB6BDB6823F0E1
:10505C000042BB6BDA607B6C01337B647B6C032B93
:10506C0002D97B6C043B7B64BB6A7A6C53F82230AC
:10507C00BB633B6C01333B643A6CFB6B9A42E1D3F0
:10508C000223BAE0FB6B0133FB637B6B9B687B6396
:10509C007B6B1B681A46BB6B1A60BB6B9B6823F45B
:1050AC007F5323F03F037A6B52681A43BB6B9A60B1
:1050BC007B6B9B68002B14D07B6B9B687B637B6B3F
:1050CC001B681A46BB6B5A60BB6B9B6823F07F5303
:1050DC0023F47C137A6B526812041A43BB6B9A60EC
:1050EC000AE0BB6B00225A60BB6B9B6823F07F53BA
:1050FC0023F47C13BA6B9360BB685B6803F01003FA
:10510C00002B0FD0BB6BDB689B0C9B04BA68126A3C
:10511C001A43BB6BDA60BB6BDB6843F48022BB6B5E
:10512C00DA6019E0BB6BDB6823F4FF4323F07F03E9
:10513C00BA6892681A43BB6BDA60BB685B6803F0B1
:10514C000103002B08D0BB6BDB6823F44032BB6837
:10515C009B691A43BB6BDA603B6B01333B63BFF358
:10516C005F8F00BFBB6BDB6843F00042BB6BDA6048
:10517C00BB6BDB6823F08042BB6BDA607B6B9B689C
:10518C00002B7FF42CAF7B68002B06D0BB6B9B688D
:10519C0043F00042BB6B9A6005E0BB6B9B6823F04D
:1051AC000042BB6B9A60BB6BDB6843F08052BB6BFD
:1051BC00DA60BB6A5A6AB96A7B6C04339B000B4495
:1051CC005A60BB6A7A6C1A61EFF31083FB61FB695E
:1051DC003B620123BB61BB6983F3108800BFBB6AD0
:1051EC009A6A3B6B13445A1CBB6A9A623B6A7B619A
:1051FC007B6983F3108800BF002318464C37BD46EB
:10520C005DF8047B7047000080B485B000AF786017
:10521C0039603B681A683B685B6813433A6892F8DC
:10522C005020002A01D1022200E000221343BB606F
:10523C007B681B68D3F8003C23F4597323F00203FA
:10524C007A681268B9680B43C2F8003C3B689A6BE9
:10525C003B68DB6C1343BB607B681B68D3F8303C4A
:10526C0023F4807323F001037A681268B9680B4346
:10527C00C2F8303C0023FB602CE03A68FB681B0151
:10528C00134408331A683968FB6801331B010B445B
:10529C0004331B681A433968FB6801331B010B4448
:1052AC001B681343BB607B681A68FB6834339B0133
:1052BC0013441B6823F4702323F07F037A6811686E
:1052CC00BA681A43FB6834339B010B441A60FB68C1
:1052DC000133FB60FB68012BCFD93B689A6A3B68B2
:1052EC00DB6B1343BB607B681B68D3F8A03023F0E7
:1052FC000F017B681B68BA680A43C3F8A02000231F
:10530C00FB604FE03968FA6813469B0013449B001E
:10531C000B44343319683868FA6813469B001344FD
:10532C009B0003442C331B6819433868FA681346F6
:10533C009B0013449B00034430331B78002B01D19A
:10534C00402300E0002319433868FA6813469B0099
:10535C0013449B00034431331B781B0119433868F9
:10536C00FA6813469B0013449B00034432331B78AA
:10537C00DB000B43BB607B681A68FB689B01134422
:10538C0003F553631A68134B13407A681168BA68B3
:10539C001A43FB689B010B4403F553631A60FB68CB
:1053AC000133FB60FB68012BACD93B68DB69BB604C
:1053BC007B681B68D3F8503D23F004017B681B68A5
:1053CC00BA680A43C3F8502D00BF1437BD465DF8C8
:1053DC00047B704704380EFF80B487B000AF786050
:1053EC00396000237B6180E13B681A6801217B698D
:1053FC0001FA03F31340FB60FB68002B00F0728191
:10540C003B685B6803F00303012B05D03B685B68CA
:10541C0003F00303022B30D17B689B683B617B69F3
:10542C005B00032202FA03F3DB433A6913403B614E
:10543C003B68DA687B695B0002FA03F33A69134351
:10544C003B617B683A699A607B685B683B610122CF
:10545C007B6902FA03F3DB433A6913403B613B6817
:10546C005B681B0903F001027B6902FA03F33A69DA
:10547C0013433B617B683A695A603B685B6803F095
:10548C000303032B09D13B685B6803F00303032B75
:10549C001BD13B689B68012B17D07B68DB683B6199
:1054AC007B695B00032202FA03F3DB433A69134086
:1054BC003B613B689A687B695B0002FA03F33A69CB
:1054CC0013433B617B683A69DA603B685B6803F0C5
:1054DC000303022B23D17B69DA087B68083253F86B
:1054EC0022303B617B6903F007039B000F2202FA19
:1054FC0003F3DB433A6913403B613B681A697B69F0
:10550C0003F007039B0002FA03F33A6913433B6170
:10551C007B69DA087B680832396943F822107B68AA
:10552C001B683B617B695B00032202FA03F3DB43DC
:10553C003A6913403B613B685B6803F003027B698B
:10554C005B0002FA03F33A6913433B617B683A69E7
:10555C001A603B685B6803F44033002B00F0C28098
:10556C00694A7B699B08183352F823303B617B698D
:10557C0003F00303DB000F2202FA03F3DB433A6967
:10558C0013403B617B68614A934243D07B68604A1D
:10559C0093423DD07B685F4A934237D07B685E4A2A
:1055AC00934231D07B685D4A93422BD07B685C4A36
:1055BC00934225D07B685B4A93421FD07B685A4A42
:1055CC00934219D07B68594A934213D07B68584A4E
:1055DC0093420DD07B68574A934207D07B68564A5A
:1055EC00934201D10B2316E0102314E00A2312E09E
:1055FC00092310E008230EE007230CE006230AE041
:10560C00052308E0042306E0032304E0022302E060
:10561C00012300E000237A6902F00302D2009340D8
:10562C003A6913433B6138497B699B0818333A69E3
:10563C0041F82320344BD3F880303B61FB68DB43CB
:10564C003A6913403B613B685B6803F48033002B81
:10565C0003D03A69FB6813433B612B4A3B69C2F8A0
:10566C008030294BD3F884303B61FB68DB433A69CB
:10567C0013403B613B685B6803F40033002B03D0A1
:10568C003A69FB6813433B611F4A3B69C2F884309B
:10569C001D4B1B683B61FB68DB433A6913403B6164
:1056AC003B685B6803F48013002B03D03A69FB68FA
:1056BC0013433B61144A3B691360134B5B683B61BA
:1056CC00FB68DB433A6913403B613B685B6803F45E
:1056DC000013002B03D03A69FB6813433B610A4A61
:1056EC003B6953607B6901337B613B681A687B695A
:1056FC0022FA03F3002B7FF477AE00BF00BF1C37F8
:10570C00BD465DF8047B70470050025600000256FF
:10571C000004025600080256000C025600100256F5
:10572C000014025600180256001C02560034025691
:10573C0000380256003C02560040025680B483B03A
:10574C0000AF78600B467B8013467B707B78002B18
:10575C0003D07A887B689A6102E07A887B689A62C7
:10576C0000BF0C37BD465DF8047B704780B487B032
:10577C0000AFF8600B467A607B81FB681B6B7B612A
:10578C007A6840F20113134040F20112934204D1A3
:10579C007B897A6913437B6109E07B6803F480732E
:1057AC00002B04D07B89DB437A6913407B61FB6857
:1057BC007A691A63FB685B6B3B617A6840F202237F
:1057CC00134040F20222934204D17B893A6913437D
:1057DC003B6109E07B6803F40073002B04D07B89E8
:1057EC00DB433A6913403B61FB683A695A6300BF7B
:1057FC001C37BD465DF8047B7047000080B584B053
:10580C0000AF7860104B1B6823F004020E497B68D4
:10581C0013430B60FCF7FEFFF86009E0FCF7FAFF9E
:10582C000246FB68D31AB3F57A7F01D9012306E04F
:10583C00054B1B6A03F40033002BEFD000231846F2
:10584C001037BD4680BD00BF0048025680B584B0FD
:10585C0000AF7860104B1B6A23F001020E497B6885
:10586C0013430B62FCF7D6FFF86009E0FCF7D2FF9C
:10587C000246FB68D31AB3F57A7F01D9012306E0FF
:10588C00054B1B6A03F00203002BEFD000231846D4
:10589C001037BD4680BD00BF0048025680B400AF33
:1058AC00054B5B6B044A43F48073536300BFBD46E6
:1058BC005DF8047B704700BF0048025680B400AF0F
:1058CC00064B5B6803F01003002B01D0012300E0B2
:1058DC0000231846BD465DF8047B704700800256D5
:1058EC0080B400AF044B0822C3F8002800BFBD46AB
:1058FC005DF8047B704700BF0080025680B400AF97
:10590C00054B03F580531A460823136000BFBD46B0
:10591C005DF8047B704700BF0080025680B400AF76
:10592C00064B5B6803F00803002B01D0012300E059
:10593C0000231846BD465DF8047B70470080025674
:10594C0080B483B000AF7860064B9B6C23F4C072BC
:10595C0004497B6813438B6400BF0C37BD465DF86C
:10596C00047B70470080025680B400AF044B9B6CE4
:10597C0003F4C0731846BD465DF8047B704700BF46
:10598C000080025680B483B000AF7860074B9B6CEC
:10599C0023F4FE027B681B04044913438B6400BF91
:1059AC000C37BD465DF8047B704700BF0080025683
:1059BC0080B400AF044B0422C3F8002800BFBD46DE
:1059CC005DF8047B704700BF0080025680B400AFC6
:1059DC00054B03F580531A460423136000BFBD46E4
:1059EC005DF8047B704700BF0080025680B400AFA6
:1059FC00064B5B6803F00403002B01D0012300E08D
:105A0C0000231846BD465DF8047B704700800256A3
:105A1C0080B483B000AF7860064B5B6C23F40072EB
:105A2C0004497B6813434B6400BF0C37BD465DF8DB
:105A3C00047B70470080025680B483B000AF78605E
:105A4C00074B5B6C23F4F8127B681B04044913436B
:105A5C004B6400BF0C37BD465DF8047B704700BF3C
:105A6C000080025680B400AF064B5B6803F0020363
:105A7C00002B01D0012300E000231846BD465DF841
:105A8C00047B70470080025680B400AF044B0122A7
:105A9C00C3F8002800BFBD465DF8047B704700BF0B
:105AAC000080025680B400AF054B03F580531A46B4
:105ABC000123136000BFBD465DF8047B704700BF37
:105ACC000080025680B400AF044B5B6803F0010306
:105ADC001846BD465DF8047B704700BF0080025637
:105AEC0080B400AF044B1B6A03F440131846BD4648
:105AFC005DF8047B704700BF0080025680B400AF95
:105B0C00044B1B6A03F040531846BD465DF8047BFA
:105B1C00704700BF0080025680B400AF044B5B6A34
:105B2C0003F4E0031846BD465DF8047B704700BFE4
:105B3C000080025680B400AF044BD3F8803003F0E1
:105B4C00E0431846BD465DF8047B70470080025662
:105B5C0080B400AF074B5B6803F48073B3F5807FB0
:105B6C0001D1012300E000231846BD465DF8047BFB
:105B7C00704700BF0080025680B400AF074BD3F8CB
:105B8C00803003F00063B3F1006F01D1012300E01A
:105B9C0000231846BD465DF8047B70470080025612
:105BAC0080B400AF044BD3F8903003F0E0431846B8
:105BBC00BD465DF8047B70470080025680B400AF90
:105BCC00074B5B6803F40073B3F5007F01D101232D
:105BDC0000E000231846BD465DF8047B704700BF0B
:105BEC000080025680B400AF074BD3F8903003F01E
:105BFC000063B3F1006F01D1012300E000231846CC
:105C0C00BD465DF8047B70470080025680B400AF3F
:105C1C00044BD3F8A03003F0E0431846BD465DF8C2
:105C2C00047B70470080025680B400AF074B5B6862
:105C3C0003F48063B3F5806F01D1012300E00023EE
:105C4C001846BD465DF8047B704700BF00800256C5
:105C5C0080B400AF074BD3F8A03003F00063B3F16E
:105C6C00006F01D1012300E000231846BD465DF80A
:105C7C00047B70470080025680B400AF044BD3F80D
:105C8C00B03003F0E0431846BD465DF8047B704726
:105C9C000080025680B400AF074B5B6803F40063CE
:105CAC00B3F5006F01D1012300E000231846BD4677
:105CBC005DF8047B704700BF0080025680B400AFD3
:105CCC00074BD3F8B03003F00063B3F1006F01D190
:105CDC00012300E000231846BD465DF8047B7047A5
:105CEC000080025680B400AF044B0122C3F8402A56
:105CFC0000BFBD465DF8047B704700BF00800256B4
:105D0C0080B400AF044BD3F8C43003F040531846B2
:105D1C00BD465DF8047B70470080025680B400AF2E
:105D2C00054BD3F8C4301B0CDBB201331846BD460F
:105D3C005DF8047B704700BF0080025680B400AF52
:105D4C00044BD3F8C83003F040531846BD465DF8F9
:105D5C00047B70470080025680B400AF054BD3F82B
:105D6C00C8301B0CDBB201331846BD465DF8047B12
:105D7C00704700BF0080025680B400AF044BD3F8CC
:105D8C00D83003F040531846BD465DF8047B70478D
:105D9C000080025680B400AF044BD3F8EC3003F013
:105DAC0040531846BD465DF8047B70470080025690
:105DBC0080B5A2B000AF78607B68002B01D10123C5
:105DCC00D1E3FFF78DFEC7F88400FFF797FEC7F805
:105DDC008000FFF7AFFEF867FFF7E2FEB867FFF74A
:105DEC0015FF7867FFF748FF3867914B5B68FB66D8
:105DFC007B681B6803F00103002B00F0A880D7F828
:105E0C008430B3F5001F28D0D7F88030B3F1005F91
:105E1C0023D0FB6FB3F1005F04D1FB6E03F48073EE
:105E2C00002B1AD1BB6FB3F1005F04D1FB6E03F4EE
:105E3C000073002B11D17B6FB3F1005F04D1FB6EAB
:105E4C0003F48063002B08D13B6FB3F1005F0AD1E0
:105E5C00FB6E03F40063002B05D07B685B68002BA2
:105E6C0075D101237FE37B685B68102B04D1704BE9
:105E7C001022C3F8002843E07B685B68002B0CD130
:105E8C006B4B03F580531A4610231360684B5B6D04
:105E9C00674A23F4C033536532E07B685B6848F291
:105EAC001002934210D1624B5B6D614A43F4004384
:105EBC0053655F4B5B6D5E4A23F4803353655C4BDB
:105ECC001022C3F800281BE07B685B68594A934298
